{
  "address": "0x7d13FD018F3530CfbA09cCF2287512008e5f9bf9",
  "abi": [
    {
      "inputs": [
        {
          "internalType": "address",
          "name": "exampleExternalContractAddress",
          "type": "address"
        }
      ],
      "stateMutability": "nonpayable",
      "type": "constructor"
    },
    {
      "anonymous": false,
      "inputs": [
        {
          "indexed": false,
          "internalType": "address",
          "name": "staker",
          "type": "address"
        },
        {
          "indexed": false,
          "internalType": "uint256",
          "name": "amount",
          "type": "uint256"
        }
      ],
      "name": "Stake",
      "type": "event"
    },
    {
      "inputs": [
        {
          "internalType": "address",
          "name": "",
          "type": "address"
        }
      ],
      "name": "balances",
      "outputs": [
        {
          "internalType": "uint256",
          "name": "",
          "type": "uint256"
        }
      ],
      "stateMutability": "view",
      "type": "function"
    },
    {
      "inputs": [],
      "name": "deadline",
      "outputs": [
        {
          "internalType": "uint256",
          "name": "",
          "type": "uint256"
        }
      ],
      "stateMutability": "view",
      "type": "function"
    },
    {
      "inputs": [],
      "name": "exampleExternalContract",
      "outputs": [
        {
          "internalType": "contract ExampleExternalContract",
          "name": "",
          "type": "address"
        }
      ],
      "stateMutability": "view",
      "type": "function"
    },
    {
      "inputs": [],
      "name": "execute",
      "outputs": [],
      "stateMutability": "nonpayable",
      "type": "function"
    },
    {
      "inputs": [],
      "name": "isExecutionCompleted",
      "outputs": [
        {
          "internalType": "bool",
          "name": "",
          "type": "bool"
        }
      ],
      "stateMutability": "view",
      "type": "function"
    },
    {
      "inputs": [],
      "name": "openForWithdraw",
      "outputs": [
        {
          "internalType": "bool",
          "name": "",
          "type": "bool"
        }
      ],
      "stateMutability": "view",
      "type": "function"
    },
    {
      "inputs": [],
      "name": "stake",
      "outputs": [],
      "stateMutability": "payable",
      "type": "function"
    },
    {
      "inputs": [],
      "name": "threshold",
      "outputs": [
        {
          "internalType": "uint256",
          "name": "",
          "type": "uint256"
        }
      ],
      "stateMutability": "view",
      "type": "function"
    },
    {
      "inputs": [],
      "name": "timeLeft",
      "outputs": [
        {
          "internalType": "uint256",
          "name": "",
          "type": "uint256"
        }
      ],
      "stateMutability": "view",
      "type": "function"
    },
    {
      "inputs": [],
      "name": "withdraw",
      "outputs": [],
      "stateMutability": "payable",
      "type": "function"
    },
    {
      "stateMutability": "payable",
      "type": "receive"
    }
  ],
  "transactionHash": "0xa28b20779475e1ff59b1748ecfddf7a0c511c833c50398f66f16f47c886c9395",
  "args": [
    "0xd8B7E8f047dEF9e51f5597528746e46D4dB267F9"
  ],
  "numDeployments": 6,
  "solcInputHash": "ae488e0ca90a34dabe784f83ca2fcec6",
  "bytecode": "0x6080604052610011426203f48061009d565b6002556003805461ff001916905534801561002b57600080fd5b506040516106bb3803806106bb83398101604081905261004a9161006f565b600080546001600160a01b0319166001600160a01b03929092169190911790556100c1565b600060208284031215610080578081fd5b81516001600160a01b0381168114610096578182fd5b9392505050565b600082198211156100bc57634e487b7160e01b81526011600452602481fd5b500190565b6105eb806100d06000396000f3fe6080604052600436106100955760003560e01c806342cde4e81161005957806342cde4e81461012457806361461954146101405780639876a643146101555780639f75f2271461017f578063f3e44787146101b757600080fd5b80631300a6d1146100a957806327e235e3146100d157806329dcb0cf146100fe5780633a4b66f1146101145780633ccfd60b1461011c57600080fd5b366100a4576100a26101d6565b005b600080fd5b3480156100b557600080fd5b506100be610283565b6040519081526020015b60405180910390f35b3480156100dd57600080fd5b506100be6100ec3660046104fd565b60016020526000908152604090205481565b34801561010a57600080fd5b506100be60025481565b6100a26101d6565b6100a26102a7565b34801561013057600080fd5b506100be670de0b6b3a764000081565b34801561014c57600080fd5b506100a26103f6565b34801561016157600080fd5b5060035461016f9060ff1681565b60405190151581526020016100c8565b34801561018b57600080fd5b5060005461019f906001600160a01b031681565b6040516001600160a01b0390911681526020016100c8565b3480156101c357600080fd5b5060035461016f90610100900460ff1681565b60025442106102255760405162461bcd60e51b815260206004820152601660248201527529ba30b5b4b733903832b934b7b21034b99037bb32b960511b60448201526064015b60405180910390fd5b3360009081526001602052604081208054349290610244908490610570565b9091555050604080513381523460208201527febedb8b3c678666e7f36970bc8f57abf6d8fa2e828c0da91ea5b75bf68ed101a910160405180910390a1565b600060025442106102945750600090565b426002546102a29190610588565b905090565b600354610100900460ff16156102cf5760405162461bcd60e51b815260040161021c9061052b565b60035460ff161515600114156103f45733600090815260016020526040902054806103485760405162461bcd60e51b815260206004820152602360248201527f596f7520646f6e277420686176652062616c616e63657320746f20776974686460448201526272617760e81b606482015260840161021c565b336000818152600160205260408082208290555190919083908381818185875af1925050503d8060008114610399576040519150601f19603f3d011682016040523d82523d6000602084013e61039e565b606091505b50509050806103e75760405162461bcd60e51b8152602060048201526015602482015274556e61626c6520746f20776974686472617721212160581b604482015260640161021c565b50506003805460ff191690555b565b600354610100900460ff161561041e5760405162461bcd60e51b815260040161021c9061052b565b6002544210156104705760405162461bcd60e51b815260206004820152601860248201527f446561646c696e65206e6f742072656163686564207965740000000000000000604482015260640161021c565b670de0b6b3a764000047106104ee576003805461ff001916610100179055600080546040805163522e117760e01b815290516001600160a01b039092169263522e1177924792600480820193929182900301818588803b1580156104d357600080fd5b505af11580156104e7573d6000803e3d6000fd5b5050505050565b6003805460ff19166001179055565b60006020828403121561050e578081fd5b81356001600160a01b0381168114610524578182fd5b9392505050565b60208082526025908201527f4578616d706c6520436f6e747261637420697320616c72656164792065786563604082015264757465642160d81b606082015260800190565b600082198211156105835761058361059f565b500190565b60008282101561059a5761059a61059f565b500390565b634e487b7160e01b600052601160045260246000fdfea26469706673582212200c951f7175ce3f75c7be5bc073730c7ff3c9866dc9a59c403df8bd1c206bbbad64736f6c63430008040033",
  "devdoc": {
    "kind": "dev",
    "methods": {},
    "version": 1
  },
  "userdoc": {
    "kind": "user",
    "methods": {},
    "version": 1
  },
  "storageLayout": {
    "storage": [
      {
        "astId": 19,
        "contract": "contracts/Staker.sol:Staker",
        "label": "exampleExternalContract",
        "offset": 0,
        "slot": "0",
        "type": "t_contract(ExampleExternalContract)12"
      },
      {
        "astId": 23,
        "contract": "contracts/Staker.sol:Staker",
        "label": "balances",
        "offset": 0,
        "slot": "1",
        "type": "t_mapping(t_address,t_uint256)"
      },
      {
        "astId": 32,
        "contract": "contracts/Staker.sol:Staker",
        "label": "deadline",
        "offset": 0,
        "slot": "2",
        "type": "t_uint256"
      },
      {
        "astId": 34,
        "contract": "contracts/Staker.sol:Staker",
        "label": "openForWithdraw",
        "offset": 0,
        "slot": "3",
        "type": "t_bool"
      },
      {
        "astId": 37,
        "contract": "contracts/Staker.sol:Staker",
        "label": "isExecutionCompleted",
        "offset": 1,
        "slot": "3",
        "type": "t_bool"
      }
    ],
    "types": {
      "t_address": {
        "encoding": "inplace",
        "label": "address",
        "numberOfBytes": "20"
      },
      "t_bool": {
        "encoding": "inplace",
        "label": "bool",
        "numberOfBytes": "1"
      },
      "t_contract(ExampleExternalContract)12": {
        "encoding": "inplace",
        "label": "contract ExampleExternalContract",
        "numberOfBytes": "20"
      },
      "t_mapping(t_address,t_uint256)": {
        "encoding": "mapping",
        "key": "t_address",
        "label": "mapping(address => uint256)",
        "numberOfBytes": "32",
        "value": "t_uint256"
      },
      "t_uint256": {
        "encoding": "inplace",
        "label": "uint256",
        "numberOfBytes": "32"
      }
    }
  }
}